S00D0000736F6E61722E73726563F4
S1130000FDC0000020C100001EC100001CC1000092
S11300101AC1000018C1000016C1000014C100007C
S113002012C1000010C100000EC100000CC100008C
S11300300AC1000008C1000006C1000004C100009C
S11300408EC1000000C10000FEC00000FCC0000022
S1130050FAC00000F8C00000F6C00000F4C00000C0
S1130060F2C00000F0C00000EEC00000ECC00000D0
S1130070EAC00000E8C00000E6C00000E4C00000E0
S1130080E2C00000E0C00000DEC00000DCC00000F0
S1130090DAC00000D8C00000D6C00000D4C0000000
S11300A0D2C00000D0C00000CEC00000CCC0000010
S11300B0CAC00000C8C00000C6C00000C4C0000020
S11300C0C2C00000C0C00000BEC00000BCC0000030
S11300D0BAC00000B8C00000B6C00000B4C0000040
S11300E0B2C00000B0C00000AEC00000ACC0000050
S11300F0AAC00000A8C00000A6C00000A4C0000060
S1130100A2C00000A0C000009EC000009CC000006F
S11301109AC0000098C0000096C0000094C000007F
S113012092C0000090C000008EC000008CC000008F
S11301308AC000005CC1000086C0000084C00000CA
S113014082C0000080C000007EC000007CC00000AF
S11301507AC0000078C0000076C0000074C00000BF
S113016073C00000A5C000006EC000006CC0000099
S11301706AC0000068C0000066C0000064C00000DF
S113018062C0000060C000005EC000005CC00000EF
S11301905AC0000058C0000056C0000054C00000FF
S11301A052C0000050C000004EC000004CC000000F
S11301B04AC0000048C0000046C0000044C000001F
S11301C042C0000040C000003EC000003CC000002F
S11301D03AC0000038C0000036C0000034C000003F
S11301E032C0000030C000002EC000002CC000004F
S11301F02AC0000028C0000026C0000011241FBE31
S1130200CFEFDFE3DEBFCDBF00E00CBF18BE19BEE9
S11302101ABE1BBE10E2A0E0B0E2E0EDF2E100E0A5
S11302200BBF02C007900D92AC31B107D9F71BBECA
S113023021E2ACE1B0E201C01D92A83AB207E1F7B5
S1130240EAD00C946609DCCE1F920F920FB60F927F
S1130250112408B60F9218BE09B60F9219BE0BB638
S11302600F921BBE2F933F934F935F936F937F9394
S11302708F939F93AF93BF93EF93FF938CE190E29F
S1130280E6D2FF91EF91BF91AF919F918F917F91B2
S11302906F915F914F913F912F910F900BBE0F90F3
S11302A009BE0F9008BE0F900FBE0F901F901895B7
S11302B01F920F920FB60F92112408B60F9218BE18
S11302C009B60F9219BE0BB60F921BBE2F933F9324
S11302D04F935F936F937F938F939F93AF93BF934A
S11302E0EF93FF938CE190E2D0D2FF91EF91BF9115
S11302F0AF919F918F917F916F915F914F913F91BA
S11303002F910F900BBE0F9009BE0F9008BE0F9057
S11303100FBE0F901F901895E0E4F6E0128A84E077
S1130320828382E680938001E0E0F8E088E28383C0
S113033080E1818382E0808381E087838FEF9FEF78
S113034086A397A30895E0E0F9E0118285E0808315
S113035081E0868388EB9BE086A397A308951F9290
S11303600F920FB60F92112408B60F9218BE09B659
S11303700F9219BE0BB60F921BBE2F933F936F9330
S11303807F938F939F93AF93BF93EF93FF93E0E09B
S1130390F8E020A531A52093A3203093A420AFE951
S11303A0B6E4CED496958795929582958F708927D9
S11303B09F708927880F991F8093A6219093A72166
S11303C088E08187FF91EF91BF91AF919F918F91C9
S11303D07F916F913F912F910F900BBE0F9009BEAB
S11303E00F9008BE0F900FBE0F901F9018951F928C
S11303F00F920FB60F92112408B60F9218BE8F9366
S113040081E0809300208F910F9008BE0F900FBE63
S11304100F901F901895C12CE12C12ECF12E01E0E5
S113042010E020E834E84EE150E060EA79E08CE145
S113043090E26DD188DF70DF81E0E0E8F6E081834F
S1130440E0E4F6E0818384E08283E0EAF0E0828104
S11304508160828378940F2EF0E4EF2EF6E0FF2E75
S1130460F02DDD24D39401E010E2C5EAD0E28091BE
S11304700020813051F4F701D582F6E0FA95F1F7C6
S113048000C0F701D682109200208091A4208F939F
S11304908091A3208F938091A7218F938091A6218F
S11304A08F931F930F93DF93CF9356D4BE018CE1A8
S11304B090E21BD0EFE4F3EC3197F1F700C00000B9
S11304C08DB79EB708968DBF9EBFD1CF1F93CF9394
S11304D0DF93EC01162F8CD1882319F0612FCE0104
S11304E096D1DF91CF911F9108950F931F93CF93CE
S11304F0DF938C01C62FD72F6991662329F0C80199
S1130500E5DF69916111FBCFDF91CF911F910F91CD
S11305100895803A28E0920739F4E0E4F6E088E0B0
S1130520818384E082830895803B28E0920739F434
S1130530E0E4F6E080E8818380E482830895803AF1
S113054029E0920739F4E0E6F6E088E0818384E06C
S113055082830895803B29E0920739F4E0E6F6E0CF
S113056080E8818380E482830895803A9A4031F45C
S1130570E0E8F6E088E0818384E0828308954F9286
S11305805F926F927F928F929F92AF92BF92CF921F
S1130590DF92EF92FF920F931F9349015A014E2D60
S11305A0417020E130E0790102C0F594E7944A9566
S11305B0E2F700230CF03AC089D22B013C01B701C9
S11305C07727882777FD8095982F82D26B017C014D
S11305D0C501B4017BD29B01AC01C701B60104D3B0
S11305E09B01AC01C301B201DDD120E030E040E861
S11305F05FE373D16B017C01112701950CF4109515
S113060061E070E002C0660F771F0A95E2F7882761
S113061077FD8095982F5CD29B01AC01C701B60190
S1130620E3D245D327D2862F972F35C04FD22B0143
S11306303C01B7017727882777FD8095982F48D20A
S11306406B017C01C501B40141D29B01AC01C7011E
S1130650B601CAD29B01AC01C301B201A3D14B01C3
S11306605C0161E070E002C0660F771F0A95E2F753
S1130670882777FD8095982F2BD29B01AC01C5016B
S1130680B40190D120E030E040E85FE326D10FD3FD
S1130690F1D1862F972F1F910F91FF90EF90DF904C
S11306A0CF90BF90AF909F908F907F906F905F900E
S11306B04F9008954F925F926F927F928F929F9284
S11306C0AF92BF92EF920F93CF93DF932B013C0134
S11306D049015A01D02FC9EFED2E0C2FA501940129
S11306E0C301B2014CDF8115904118F0CF5FC830CF
S11306F099F78C2FDF91CF910F91EF90BF90AF902E
S11307009F908F907F906F905F904F9008952F925D
S11307103F924F925F926F927F928F929F92AF928D
S1130720BF92CF92EF92FF920F931F93CF93DF93D9
S1130730EC013B0149015A0117012801EC2C0C2D55
S1130740A2019101C501B401B5DF182F082FA20140
S11307509101C501B40113DFB82EE92E41E0B301C4
S1130760CE0132D0E881F98183E08583E881F98183
S1130770848180618483E881F981848188608483B1
S1130780E881F98183818F7C80618383E881F981A9
S1130790B682E881F9811295107FE12AE782888187
S11307A09981B7DEDF91CF911F910F91FF90EF9068
S11307B0CF90BF90AF909F908F907F906F905F90FD
S11307C04F903F902F900895FC0160837183428382
S11307D0EC57FF4F1082FC01ED57FF4F1082FC01D4
S11307E0EA57FF4F1082FC01EB57FF4F1082089528
S11307F0FC01EB57FF4F2081FC01EA57FF4F90812A
S11308002F5F2F7381E0291301C080E008951F93A7
S1130810CF93DF93EC01162FEBDF8823A1F0FE01C9
S1130820EB57FF4F9081DE01A90FB11DAD5BBF4FA8
S11308301C939F5F9F739083E881F98193819C7FD0
S11308402A81922B9383DF91CF911F910895FC010C
S1130850ED57FF4F20812F5F2F73FC01EC57FF4FA3
S11308603081DC01ED91FC9111974081231759F0FF
S1130870FC01ED57FF4F3081A30FB11D13964C932C
S1130880208381E0089580E00895CF93DF93FC01F5
S1130890EA57FF4F2081FC01EB57FF4F30813213A1
S11308A007C0DC01ED91FC9183818C7F838312C0AE
S11308B0FC01EA57FF4F2081DC01A20FB11DAD5BA3
S11308C0BF4F2C91EC01A881B9812C9380818F5F5B
S11308D08F738083DF91CF9108955058BB27AA2747
S11308E00ED048C139D130F03ED120F031F49F3FD1
S11308F011F41EF42EC10EF4E095E7FB24C1E92F98
S11309004AD180F3BA17620773078407950718F072
S113091071F49EF562C10EF4E0950B2EBA2FA02D52
S11309200B01B90190010C01CA01A0011124FF2798
S1130930591B99F0593F50F4503E68F11A16F04093
S1130940A22F232F342F4427585FF3CF4695379592
S11309502795A795F0405395C9F77EF41F16BA0B57
S1130960620B730B840BBAF09150A1F0FF0FBB1F05
S1130970661F771F881FC2F70EC0BA0F621F731F4E
S1130980841F48F4879577956795B795F7959E3FAB
S113099008F0B3CF9395880F08F09927EE0F979539
S11309A0879508950CD0E6C0DED040F0D5D030F065
S11309B021F45F3F19F0C7C0511110C1CAC0EBD078
S11309C098F39923C9F35523B1F3951B550BBB2712
S11309D0AA2762177307840738F09F5F5F4F220FBF
S11309E0331F441FAA1FA9F333D00E2E3AF0E0E8B8
S11309F030D091505040E695001CCAF729D0FE2F04
S1130A0027D0660F771F881FBB1F26173707480795
S1130A10AB07B0E809F0BB0B802DBF01FF2793584B
S1130A205F4F2AF09E3F510568F08DC0D7C05F3FED
S1130A30ECF3983EDCF3869577956795B795F79533
S1130A409F5FC9F7880F911D9695879597F908952B
S1130A50E1E0660F771F881FBB1F621773078407C7
S1130A60BA0720F0621B730B840BBA0BEE1F88F7D6
S1130A70E095089598D088F09F5790F0B92F992762
S1130A80B751A0F0D1F0660F771F881F991F1AF095
S1130A90BA95C9F712C0B13081F09FD0B1E0089582
S1130AA09CC0672F782F8827B85F39F0B93FCCF303
S1130AB0869577956795B395D9F73EF4909580958B
S1130AC0709561957F4F8F4F9F4F0895E89409C0AB
S1130AD097FB3EF490958095709561957F4F8F4F6D
S1130AE09F4F9923A9F0F92F96E9BB279395F69583
S1130AF0879577956795B795F111F8CFFAF4BB0F01
S1130B0011F460FF1BC06F5F7F4F8F4F9F4F16C064
S1130B10882311F096E911C0772321F09EE8872FEE
S1130B20762F05C0662371F096E8862F70E060E0AA
S1130B302AF09A95660F771F881FDAF7880F969523
S1130B40879597F9089597F99F6780E870E060E0CA
S1130B5008959FEF80EC089500240A941616170652
S1130B6018060906089500240A941216130614069A
S1130B7005060895092E0394000C11F4882352F0FD
S1130B80BB0F40F4BF2B11F460FF04C06F5F7F4FB5
S1130B908F4F9F4F089557FD9058440F551F59F09C
S1130BA05F3F71F04795880F97FB991F61F09F3F56
S1130BB079F087950895121613061406551FF2CF7F
S1130BC04695F1DF08C0161617061806991FF1CFCF
S1130BD086957105610508940895E894BB276627F6
S1130BE07727CB0197F908950BD0C4CFB5DF28F050
S1130BF0BADF18F0952309F0A6CFABCF1124EECFBE
S1130C00CADFA0F3959FD1F3950F50E0551F629F63
S1130C10F001729FBB27F00DB11D639FAA27F00D51
S1130C20B11DAA1F649F6627B00DA11D661F829F78
S1130C302227B00DA11D621F739FB00DA11D621F5D
S1130C40839FA00D611D221F749F3327A00D611D7A
S1130C50231F849F600D211D822F762F6A2F11245C
S1130C609F5750408AF0E1F088234AF0EE0FFF1FAF
S1130C70BB1F661F771F881F91505040A9F79E3FE6
S1130C80510570F060CFAACF5F3FECF3983EDCF3E0
S1130C90869577956795B795F795E7959F5FC1F723
S1130CA0FE2B880F911D9695879597F908957BDF04
S1130CB0E0F09E37D8F09639B8F49E3848F4672FA0
S1130CC0782F8827985FF9CF8695779567959395C0
S1130CD09539D0F3B62FB1706B0F711D811D20F4BF
S1130CE0879577956795939502C01CC077CF882325
S1130CF071F4772321F09850872B762F07C0662351
S1130D0011F499270DC09051862B70E060E02AF011
S1130D109A95660F771F881FDAF7880F969587953F
S1130D2097F908959F3F31F0915020F48795779576
S1130D306795B795880F911D9695879597F90895AE
S1130D40A29FB001B39FC001A39F01D0B29F700DB9
S1130D50811D1124911D08950F931F93CF93DF9349
S1130D60CDB7DEB72E97CDBFDEBF0E891F8986E0D3
S1130D708C8309831A838FEF9FE78D839E83CE0133
S1130D804A96AC01688D798DCE0101960DD0EF8124
S1130D90F885E00FF11F10822E96CDBFDEBFDF91E4
S1130DA0CF911F910F9108952F923F924F925F928E
S1130DB06F927F928F929F92AF92BF92CF92DF9267
S1130DC0EF92FF920F931F93CF93DF93CDB7DEB7CC
S1130DD02C97CDBFDEBF7C016B018A01FC0116821A
S1130DE01782838181FFB9C188248394912C8C0E4E
S1130DF09D1EF7019381F60193FD859193FF8191E7
S1130E006F01882309F4A5C1853239F493FD8591D6
S1130E1093FF81916F01853221F4B70190E0CCD129
S1130E20E8CF512C312C20E02032A8F48B3261F031
S1130E3028F4803251F0833271F40BC08D3239F0D2
S1130E40803349F4216028C02260246025C02860D2
S1130E5023C0206121C027FD27C0382F30533A30EA
S1130E6078F426FF06C0FAE05F9E300D1124532E5D
S1130E7013C08AE0389E300D1124332E20620CC03A
S1130E808E3221F426FD65C1206406C08C3611F42F
S1130E90206802C0883641F4F60193FD859193FFE2
S1130EA081916F018111C0CF982F9554933018F020
S1130EB09052933028F40C5F1F4FFFE3F9830DC069
S1130EC0833631F0833771F0833509F05AC022C07C
S1130ED0F801808189830E5F1F4F44244394512C71
S1130EE0540114C03801F2E06F0E711CF801A080A7
S1130EF0B18026FF03C0652D70E002C06FEF7FEF65
S1130F00C5012C874ED12C0183012C856FE7262E39
S1130F10222217C03801F2E06F0E711CF801A08084
S1130F20B18026FF03C0652D70E002C06FEF7FEF34
S1130F30C5012C872BD12C012C8550E8252E222A83
S1130F40830123FC1AC005C0B70180E290E034D1CC
S1130F503A94832D90E048165906B0F30EC0F5017B
S1130F6027FC859127FE81915F01B70190E024D190
S1130F7031103A94F1E04F1A51084114510479F7B1
S1130F80E5C0843611F0893639F5F80127FF07C02A
S1130F9060817181828193810C5F1F4F08C06081E1
S1130FA07181882777FD8095982F0E5F1F4F4FE63C
S1130FB0B42EB22297FF09C09095809570956195E3
S1130FC07F4F8F4F9F4FF0E8BF2A2AE030E0A40103
S1130FD01FD1A82EA81842C0853731F43FEEB32E96
S1130FE0B2222AE030E024C099EFB92EB2228F3623
S1130FF0B9F020F4883509F0ACC00DC0803721F079
S1131000883709F0A6C002C020E1B22AB4FE0BC0A2
S113101084E0B82A08C024FF09C0E6E0BE2A06C05E
S113102028E030E005C020E130E002C020E132E0F9
S1131030F801B7FE07C060817181828193810C5FE2
S11310401F4F06C06081718180E090E00E5F1F4FEA
S1131050A401DED0A82EA818FFE7BF22B6FE0BC05D
S11310602B2D2E7FA51450F4B4FE0AC0B2FC08C088
S11310702B2D2E7E05C07A2C2B2D03C07A2C01C07B
S1131080752C24FF0DC0FE01EA0DF11D8081803313
S113109011F4297E09C022FF06C07394739404C01E
S11310A0822F867809F0739423FD13C020FF0EC0AD
S11310B05A2C731458F4530C5718732C07C0B701E7
S11310C080E290E02C8778D073942C857314B8F365
S11310D004C0731410F4371801C0312C24FF11C05C
S11310E0B70180E390E02C8767D02C8522FF1CC0D9
S11310F021FF03C088E590E002C088E790E0B701D3
S11311000CC0822F867881F021FD02C080E201C0EC
S11311108BE227FD8DE2B70190E04ED005C0B70108
S113112080E390E049D05A94A514C8F3AA94F4013A
S1131130EA0DF11DB701808190E03ED0A110F6CFF9
S113114005C0B70180E290E037D03A943110F9CF6E
S113115050CEF7012681378102C02FEF3FEFC9013E
S11311602C96CDBFDEBFDF91CF911F910F91FF90E1
S1131170EF90DF90CF90BF90AF909F908F907F9033
S11311806F905F904F903F902F900895FC010590D1
S1131190615070400110D8F7809590958E0F9F1F75
S11311A00895FC016150704001900110D8F78095BA
S11311B090958E0F9F1F08950F931F93CF93DF93E6
S11311C08C01EB018B8181FD03C00FEF1FEF1AC06F
S11311D082FF0DC02E813F818C819D8128173907A4
S11311E064F4E881F9810193E883F98306C0E88512
S11311F0F985802F1995892B41F78E819F8101965E
S11312008E839F83C801DF91CF911F910F91089521
S1131210FA01AA27283051F1203181F1E8946F9323
S11312206E7F6E5F7F4F8F4F9F4FAF4FB1E03ED0C9
S1131230B4E03CD0670F781F891F9A1FA11D680F67
S1131240791F8A1F911DA11D6A0F711D811D911D9A
S1131250A11D20D009F468943F912AE0269F11240F
S11312603019305D3193DEF6CF010895462F477073
S1131270405D4193B3E00FD0C9F7F6CF462F4F70CE
S1131280405D4A3318F0495D31FD4052419302D02C
S1131290A9F7EACFB4E0A6959795879577956795D2
S11312A0BA95C9F700976105710508959B01AC01D2
S11312B00A2E06945795479537952795BA95C9F7F9
S11312C0620F731F841F951FA01D0895F894FFCF0C
S11312D00120256420636D2C202564206B6C6F6BCA
S10F12E0736C6167656E200A0D2000002D
S9030000FC
