S0110000586D6567615F4E58542E73726563C8
S1130000FDC000001FC1000089C200001BC1000028
S113001019C1000017C1000015C1000013C1000080
S113002011C100000FC100000DC100000BC1000090
S113003041C2000007C1000005C1000003C1000067
S113004001C10000FFC00000FDC00000FBC00000B3
S113005079C20000F7C00000F5C00000F3C0000042
S1130060F1C00000EFC00000EDC00000EBC00000D4
S1130070F8C000002AC10000E5C00000E3C0000091
S1130080E1C00000DFC00000DDC00000DBC00000F4
S1130090D9C00000D7C00000D5C00000D3C0000004
S11300A0D1C00000CFC00000CDC00000CBC0000014
S11300B0C9C00000C7C00000C5C00000C3C0000024
S11300C0C1C00000BFC00000BDC00000BBC0000034
S11300D0B9C00000B7C00000B5C00000B3C0000044
S11300E0B1C00000AFC00000ADC00000ABC0000054
S11300F0A9C00000A7C00000A5C00000A3C0000064
S1130100A1C000009FC000009DC000009BC0000073
S113011099C0000097C0000095C0000093C0000083
S113012091C000008FC000008DC000008BC0000093
S113013089C0000087C0000085C0000083C00000A3
S113014081C000007FC000007DC000007BC00000B3
S113015079C0000077C0000075C0000073C00000C3
S1130160E8C000001AC100006DC000006BC00000B0
S113017069C0000067C0000065C0000063C00000E3
S113018061C000005FC000005DC000005BC00000F3
S113019059C0000057C0000055C0000053C0000003
S11301A051C000004FC000004DC000004BC0000013
S11301B049C0000047C0000045C0000043C0000023
S11301C041C000003FC000003DC000003BC0000033
S11301D039C0000037C0000035C0000033C0000043
S11301E031C000002FC000002DC000002BC0000053
S11301F029C0000027C0000025C0000011241FBE34
S1130200CFEFDFE3DEBFCDBF00E00CBF18BE19BEE9
S11302101ABE1BBE10E2A0E0B0E2E6E4F1E100E0A9
S11302200BBF02C007900D92AA31B107D9F71BBECC
S113023022E2AAE1B0E201C01D92A23DB207E1F7B9
S1130240E0D07FC7DDCE809135218093C12190E03D
S1130250FC01EF54FF4D2481FC01EE53FE4D20833D
S113026008951F920F920FB60F92112408B60F92A1
S113027018BE09B60F9219BE0BB60F921BBE2F9370
S11302803F934F935F936F937F938F939F93AF931A
S1130290BF93EF93FF938AE391E2DAD4FF91EF9156
S11302A0BF91AF919F918F917F916F915F914F918A
S11302B03F912F910F900BBE0F9009BE0F9008BE77
S11302C00F900FBE0F901F9018951F920F920FB6AC
S11302D00F92112408B60F9218BE09B60F9219BED8
S11302E00BB60F921BBE2F933F934F935F936F9365
S11302F07F938F939F93AF93BF93EF93FF938AE37F
S113030091E2C4D4FF91EF91BF91AF919F918F91EE
S11303107F916F915F914F913F912F910F900BBE01
S11303200F9009BE0F9008BE0F900FBE0F901F9044
S113033018951F920F920FB60F92112408B60F92C0
S113034018BE09B60F9219BE0BB60F921BBE2F939F
S11303503F934F935F936F937F938F939F93AF9349
S1130360BF93EF93FF938AE190E272D4FF91EF91F0
S1130370BF91AF919F918F917F916F915F914F91B9
S11303803F912F910F900BBE0F9009BE0F9008BEA6
S11303900F900FBE0F901F9018951F920F920FB6DB
S11303A00F92112408B60F9218BE09B60F9219BE07
S11303B00BB60F921BBE2F933F934F935F936F9394
S11303C07F938F939F93AF93BF93EF93FF938AE1B0
S11303D090E25CD4FF91EF91BF91AF919F918F9187
S11303E07F916F915F914F913F912F910F900BBE31
S11303F00F9009BE0F9008BE0F900FBE0F901F9074
S11304001895C1E0E0E8F6E0C183E0E4F6E080E4BA
S11304108287C68BC187C12CE12C12ECF12E01E03E
S113042010E020E834E84EE150E060EA79E08AE147
S113043090E253D310E8E12E15E2F12E00E010E033
S113044020E834E84EE150E060EB78E08AE391E2A2
S113045044D3E0E4F8E011821082C68380E991E09D
S113046086A397A343E251E060E874E081EB90E255
S1130470E5D040E461E081EB90E2F9D0E0EAF0E01D
S1130480C283789484E58093F52087E58093F620F1
S113049089E48093F72084E1E0E0F0E2A2EDB1E2A8
S11304A001900D928A95E1F762ED71E28AE190E2A2
S11304B002D2FFCF1F920F920FB60F92112408B6EB
S11304C00F9218BE09B60F9219BE0BB60F921BBE3F
S11304D02F933F934F935F936F937F938F939F9348
S11304E0AF93BF93EF93FF9381EB90E29AD1FF9187
S11304F0EF91BF91AF919F918F917F916F915F9198
S11305004F913F912F910F900BBE0F9009BE0F900A
S113051008BE0F900FBE0F901F9018951F920F9258
S11305200FB60F92112408B60F9218BE8F9387E06E
S1130530809340088F910F9008BE0F900FBE0F90CC
S11305401F9018951F920F920FB60F92112408B6A0
S11305500F9218BE09B60F9219BE0AB60F921ABEB0
S11305600BB60F921BBEEF92FF920F931F932F9324
S11305703F934F935F936F937F938F939F93AF9327
S1130580BF93CF93DF93EF93FF931092400881E0E2
S1130590E0E8F6E0858301EA10E20F2EF1EBEF2E9E
S11305A0F0E2FF2EF02DE8018AE391E236D38823AE
S11305B021F08AE391E23ED388832196CE15DF05AC
S11305C099F764E170E28AE190E275D1C0E0D0E08D
S11305D0F80161918F01662351F0CB30D10524F4E9
S11305E0FE01EB50FF4D60838AE190E255D12196E4
S11305F0C031D10569F781E0E0E8F6E08683FF9138
S1130600EF91DF91CF91BF91AF919F918F917F91A6
S11306106F915F914F913F912F911F910F91FF9097
S1130620EF900F900BBE0F900ABE0F9009BE0F9073
S113063008BE0F900FBE0F901F901895FC016083A9
S1130640718342835383EC57FF4F1082FC01EB57B5
S1130650FF4F1082FC01EA57FF4F1082FC01E9575B
S1130660FF4F1082FC01E857FF4F10820895DC0110
S1130670ED91FC91119748634087ED91FC91660FD1
S113068063870895FC01E957FF4F6083FC01EA5733
S1130690FF4F10820895CF93DF93FC01EB57FF4F78
S11306A02081222359F0DC01ED91FC91228524FF65
S11306B005C022E0218761E0E5DF24C0FC01EB579F
S11306C0FF4F20812034B8F4FC01EB57FF4F208109
S11306D0DC01A20FB11DAC5BBF4F2C91EC01A881D2
S11306E0B9811C962C9320812F5F2083E881F981A6
S11306F083E0818707C0DC01ED91FC9122E0218732
S113070062E0C0DFDF91CF9108950F931F93CF93E1
S1130710DF93EC01E881F981808584608087FE01A4
S1130720EC57FF4F8081803448F5E881F981848556
S11307308E010C571F4FF8019081FE01E90FF11D46
S11307408483EA81FB811995F80180818F5F80831E
S1130750FE01E857FF4F8081882359F0E881F98131
S113076082E0818766E0CE018DDFC857DF4F1882B3
S11307700CC0E881F98183E0818707C0E881F981B1
S113078086E0818762E0CE017DDFDF91CF911F910A
S11307900F910895DC01ED91FC91228521FF01C0A8
S11307A07ACFB3CFDC01ED91FC91119720852B7F9B
S11307B02087ED91FC9122852064228761E062CF3D
S11307C0CF93DF93EC01FC01E857FF4F808188232E
S11307D059F0E881F98182E0818766E0CE0152DF39
S11307E0C857DF4F18821AC0FE01EA57FF4F81E055
S11307F08083FE01E957FF4F1082E881F9818085EB
S11308008B7F8087FE01EC57FF4F1082FE01EB5770
S1130810FF4F1082E881F98183E08187DF91CF91D6
S11308200895DC01ED91FC91228522FF12C0FC01A8
S1130830EC57FF4F1082FC01EB57FF4F1082FC0175
S1130840E957FF4F24E02083FC01EA57FF4F108251
S1130850089523FF12C0FC01EC57FF4F1082FC01E6
S1130860EB57FF4F1082FC01E957FF4F23E0208331
S1130870FC01EA57FF4F10820895422F4074322F33
S11308803174313409F49CCF442309F08BCF2223F3
S11308900CF480CF65E0F6CE1F93CF93DF93EC0189
S11308A0162F8CD1882319F0612FCE0196D1DF91B8
S11308B0CF911F9108950F931F93CF93DF938C01D2
S11308C0C62FD72F6991662329F0C801E5DF699106
S11308D06111FBCFDF91CF911F910F910895803A61
S11308E028E0920739F4E0E4F6E088E0818384E0CC
S11308F082830895803B28E0920739F4E0E4F6E02F
S113090080E8818380E482830895803A29E0920715
S113091039F4E0E6F6E088E0818384E08283089598
S1130920803B29E0920739F4E0E6F6E080E8818331
S113093080E482830895803A9A4031F4E0E8F6E056
S113094088E0818384E0828308954F925F926F925E
S11309507F928F929F92AF92BF92CF92DF92EF924B
S1130960FF920F931F9349015A014E2D417020E1CC
S113097030E0790102C0F594E7944A95E2F7002348
S11309800CF03AC0A4D22B013C01B7017727882789
S113099077FD8095982F9DD26B017C01C501B40130
S11309A096D29B01AC01C701B6011FD39B01AC01D8
S11309B0C301B201F8D120E030E040E85FE38ED11A
S11309C06B017C01112701950CF4109561E070E036
S11309D002C0660F771F0A95E2F7882777FD809596
S11309E0982F77D29B01AC01C701B601FED260D328
S11309F042D2862F972F35C06AD22B013C01B70112
S1130A007727882777FD8095982F63D26B017C0127
S1130A10C501B4015CD29B01AC01C701B601E5D2AA
S1130A209B01AC01C301B201BED14B015C0161E089
S1130A3070E002C0660F771F0A95E2F7882777FDFA
S1130A408095982F46D29B01AC01C501B401ABD16E
S1130A5020E030E040E85FE341D12AD30CD2862F76
S1130A60972F1F910F91FF90EF90DF90CF90BF9041
S1130A70AF909F908F907F906F905F904F9008956C
S1130A804F925F926F927F928F929F92AF92BF929A
S1130A90EF920F93CF93DF932B013C0149015A014D
S1130AA0D02FC9EFED2E0C2FA5019401C301B20183
S1130AB04CDF8115904118F0CF5FC83099F78C2F27
S1130AC0DF91CF910F91EF90BF90AF909F908F9057
S1130AD07F906F905F904F9008952F923F924F9226
S1130AE05F926F927F928F929F92AF92BF92CF92BA
S1130AF0EF92FF920F931F93CF93DF93EC013B018F
S1130B0049015A0117012801EC2C0C2DA201910175
S1130B10C501B401B5DF182F082FA2019101C50149
S1130B20B40113DFB82EE92E41E0B301CE0132D077
S1130B30E881F98183E08583E881F981848180619A
S1130B408483E881F981848188608483E881F981E0
S1130B5083818F7C80618383E881F981B682E88117
S1130B60F9811295107FE12AE78288819981B7DEA5
S1130B70DF91CF911F910F91FF90EF90CF90BF9095
S1130B80AF909F908F907F906F905F904F903F9029
S1130B902F900895FC01608371834283EC57FF4FCB
S1130BA01082FC01ED57FF4F1082FC01EA57FF4F02
S1130BB01082FC01EB57FF4F10820895FC01EB57A4
S1130BC0FF4F2081FC01EA57FF4F90812F5F2F7365
S1130BD081E0291301C080E008951F93CF93DF9330
S1130BE0EC01162FEBDF8823A1F0FE01EB57FF4F3A
S1130BF09081DE01A90FB11DAD5BBF4F1C939F5FB8
S1130C009F739083E881F98193819C7F2A81922B41
S1130C109383DF91CF911F910895FC01ED57FF4F0E
S1130C202081FC01EC57FF4F908181E0291301C022
S1130C3080E00895FC01EC57FF4F2081DC01A20FF6
S1130C40B11D13968C9190819F5F9F73908308953B
S1130C50FC01ED57FF4F20812F5F2F73FC01EC57F0
S1130C60FF4F3081DC01ED91FC91119740812317F6
S1130C7059F0FC01ED57FF4F3081A30FB11D1396BE
S1130C804C93208381E0089580E00895CF93DF930F
S1130C90FC01EA57FF4F2081FC01EB57FF4F3081E5
S1130CA0321307C0DC01ED91FC9183818C7F838337
S1130CB012C0FC01EA57FF4F2081DC01A20FB11DD5
S1130CC0AD5BBF4F2C91EC01A881B9812C9380813D
S1130CD08F5F8F738083DF91CF9108955058BB2726
S1130CE0AA270ED048C139D130F03ED120F031F4DA
S1130CF09F3F11F41EF42EC10EF4E095E7FB24C1CE
S1130D00E92F4AD180F3BA1762077307840795075E
S1130D1018F071F49EF562C10EF4E0950B2EBA2F13
S1130D20A02D0B01B90190010C01CA01A0011124ED
S1130D30FF27591B99F0593F50F4503E68F11A1699
S1130D40F040A22F232F342F4427585FF3CF46952A
S1130D5037952795A795F0405395C9F77EF41F164C
S1130D60BA0B620B730B840BBAF09150A1F0FF0F16
S1130D70BB1F661F771F881FC2F70EC0BA0F621F02
S1130D80731F841F48F4879577956795B795F795F2
S1130D909E3F08F0B3CF9395880F08F09927EE0F84
S1130DA09795879508950CD0E6C0DED040F0D5D055
S1130DB030F021F45F3F19F0C7C0511110C1CAC00F
S1130DC0EBD098F39923C9F35523B1F3951B550B35
S1130DD0BB27AA2762177307840738F09F5F5F4F0A
S1130DE0220F331F441FAA1FA9F333D00E2E3AF04B
S1130DF0E0E830D091505040E695001CCAF729D065
S1130E00FE2F27D0660F771F881FBB1F26173707B3
S1130E104807AB07B0E809F0BB0B802DBF01FF27E3
S1130E2093585F4F2AF09E3F510568F08DC0D7C09C
S1130E305F3FECF3983EDCF3869577956795B7951D
S1130E40F7959F5FC9F7880F911D9695879597F938
S1130E500895E1E0660F771F881FBB1F62177307B1
S1130E608407BA0720F0621B730B840BBA0BEE1FC6
S1130E7088F7E095089598D088F09F5790F0B92F9F
S1130E809927B751A0F0D1F0660F771F881F991FDB
S1130E901AF0BA95C9F712C0B13081F09FD0B1E011
S1130EA008959CC0672F782F8827B85F39F0B93F21
S1130EB0CCF3869577956795B395D9F73EF49095DD
S1130EC08095709561957F4F8F4F9F4F0895E8945B
S1130ED009C097FB3EF490958095709561957F4F7E
S1130EE08F4F9F4F9923A9F0F92F96E9BB2793952C
S1130EF0F695879577956795B795F111F8CFFAF43C
S1130F00BB0F11F460FF1BC06F5F7F4F8F4F9F4F6C
S1130F1016C0882311F096E911C0772321F09EE8CA
S1130F20872F762F05C0662371F096E8862F70E030
S1130F3060E02AF09A95660F771F881FDAF7880F0A
S1130F409695879597F9089597F99F6780E870E0DB
S1130F5060E008959FEF80EC089500240A9416162B
S1130F60170618060906089500240A941216130693
S1130F70140605060895092E0394000C11F4882321
S1130F8052F0BB0F40F4BF2B11F460FF04C06F5F3D
S1130F907F4F8F4F9F4F089557FD9058440F551F13
S1130FA059F05F3F71F04795880F97FB991F61F0E7
S1130FB09F3F79F087950895121613061406551F5E
S1130FC0F2CF4695F1DF08C0161617061806991FCA
S1130FD0F1CF86957105610508940895E894BB27BF
S1130FE066277727CB0197F908950BD0C4CFB5DFD7
S1130FF028F0BADF18F0952309F0A6CFABCF11245F
S1131000EECFCADFA0F3959FD1F3950F50E0551FA3
S1131010629FF001729FBB27F00DB11D639FAA2749
S1131020F00DB11DAA1F649F6627B00DA11D661F98
S1131030829F2227B00DA11D621F739FB00DA11DB9
S1131040621F839FA00D611D221F749F3327A00D73
S1131050611D231F849F600D211D822F762F6A2F0F
S113106011249F5750408AF0E1F088234AF0EE0F94
S1131070FF1FBB1F661F771F881F91505040A9F7A1
S11310809E3F510570F060CFAACF5F3FECF3983ECE
S1131090DCF3869577956795B795F795E7959F5F08
S11310A0C1F7FE2B880F911D9695879597F90895A2
S11310B07BDFE0F09E37D8F09639B8F49E3848F4D8
S11310C0672F782F8827985FF9CF8695779567954E
S11310D093959539D0F3B62FB1706B0F711D811DA7
S11310E020F4879577956795939502C01CC077CFB8
S11310F0882371F4772321F09850872B762F07C02B
S1131100662311F499270DC09051862B70E060E09E
S11311102AF09A95660F771F881FDAF7880F96953D
S1131120879597F908959F3F31F0915020F4879562
S113113077956795B795880F911D9695879597F93B
S10911400895F894FFCFAE
S11311465541525420436F6E6E6563746564212164
S10D1156210A0D0049443A2000006C
S9030000FC
