S0120000436F6E74726F6C6C65722E73726563EE
S1130000FDC000001FC100001DC100001BC1000095
S113001019C1000017C1000015C1000013C1000080
S113002011C100000FC100000DC100000BC1000090
S113003009C1000007C1000005C1000003C10000A0
S113004001C10000FFC00000FDC00000FBC00000B3
S1130050F9C00000F7C00000F5C00000F3C00000C4
S1130060F1C00000EFC00000EDC00000EBC00000D4
S1130070E9C00000E7C00000E5C00000E3C00000E4
S1130080E1C00000DFC00000DDC00000DBC00000F4
S1130090D9C00000D7C00000D5C00000D3C0000004
S11300A0D1C00000CFC00000CDC00000CBC0000014
S11300B0C9C00000C7C00000C5C00000C3C0000024
S11300C0C1C00000BFC00000BDC00000BBC0000034
S11300D0B9C00000B7C00000B5C00000B3C0000044
S11300E0B1C00000AFC00000ADC00000ABC0000054
S11300F0A9C00000A7C00000A5C00000A3C0000064
S1130100A1C000009FC000009DC000009BC0000073
S113011099C0000097C0000095C0000093C0000083
S113012091C000008FC000008DC000008BC0000093
S113013089C0000087C0000085C0000083C00000A3
S113014081C000007FC000007DC000007BC00000B3
S113015079C0000077C0000075C0000073C00000C3
S113016072C00000A4C000006DC000006BC000009D
S113017069C0000067C0000065C0000063C00000E3
S113018061C000005FC000005DC000005BC00000F3
S113019059C0000057C0000055C0000053C0000003
S11301A051C000004FC000004DC000004BC0000013
S11301B049C0000047C0000045C0000043C0000023
S11301C041C000003FC000003DC000003BC0000033
S11301D039C0000037C0000035C0000033C0000043
S11301E031C000002FC000002DC000002BC0000053
S11301F029C0000027C0000025C0000011241FBE34
S1130200CFEFDFE3DEBFCDBF00E00CBF18BE19BEE9
S11302101ABE1BBE10E2A0E0B0E2EEECF1E100E099
S11302200BBF02C007900D92AE31B107D9F71BBEC8
S113023020E2AEE1B0E201C01D92AD32B207E1F7B7
S11302406AD0C3C7DDCE1F920F920FB60F9211244E
S113025008B60F9218BE09B60F9219BE0BB60F92CC
S11302601BBE2F933F934F935F936F937F938F9313
S11302709F93AF93BF93EF93FF938EE190E289D264
S1130280FF91EF91BF91AF919F918F917F916F916A
S11302905F914F913F912F910F900BBE0F9009BE2C
S11302A00F9008BE0F900FBE0F901F9018951F92CD
S11302B00F920FB60F92112408B60F9218BE09B60A
S11302C00F9219BE0BB60F921BBE2F933F934F9301
S11302D05F936F937F938F939F93AF93BF93EF93AA
S11302E0FF938EE190E26AD2FF91EF91BF91AF91BB
S11302F09F918F917F916F915F914F913F912F913A
S11303000F900BBE0F9009BE0F9008BE0F900FBE4A
S11303100F901F901895CF93DF93CDB7DEB7C456D7
S1130320D109CDBFDEBFDD24D394E0E8F6E0D1826D
S1130330C12CE12C12ECF12E01E010E020E834E8AD
S11303404EE150E060EA79E08EE190E297D1E0EA94
S1130350F0E0D282789457D0E0E4F6E080E1818343
S11303608683D182D58260E070E28EE190E274D01F
S11303702FE78AE196E0215080409040E1F700C0E9
S1130380000086E02BD01F928F9380E190E29F9330
S11303908F938E010F5F1F4F1F930F935CD4B8018F
S11303A08EE190E259D00F900F900F900F900F9024
S11303B00F9000E816E0FF24F394F801F78266E159
S11303C070E28EE190E248D0FFE72AE186E0F15046
S11303D020408040E1F700C00000EFCF1F93CF938F
S11303E0DF93C0E4D6E010E11E8390E0880F991FEC
S11303F08E779927806811D080E00FD01D83DF911C
S1130400CF911F910895E0E4F6E080EA818380E4CF
S1130410828380EF8093C0080895E0ECF8E0838342
S113042081E0E0E8F6E08783E0ECF8E0828188236D
S1130430ECF7E0ECF8E0838108951F93CF93DF930A
S1130440EC01162F81D1882319F0612FCE0186D1BA
S1130450DF91CF911F9108950F931F93CF93DF9353
S11304608C01C62FD72F6991662329F0C801E5DFD7
S113047069916111FBCFDF91CF911F910F91089585
S1130480803A28E0920739F4E0E4F6E088E08183DA
S113049084E082830895803B28E0920739F4E0E405
S11304A0F6E080E8818380E482830895803A29E03D
S11304B0920739F4E0E6F6E088E0818384E0828301
S11304C00895803B29E0920739F4E0E6F6E080E8FD
S11304D0818380E482830895803A9A4031F4E0E88D
S11304E0F6E088E0818384E0828308954F925F92EE
S11304F06F927F928F929F92AF92BF92CF92DF9230
S1130500EF92FF920F931F9349015A014E2D4170B0
S113051020E130E0790102C0F594E7944A95E2F7CE
S113052000230CF03AC05DD22B013C01B7017727C0
S1130530882777FD8095982F56D26B017C01C501E1
S1130540B4014FD29B01AC01C701B601D8D29B01C3
S1130550AC01C301B201B1D120E030E040E85FE377
S113056047D16B017C01112701950CF4109561E0D2
S113057070E002C0660F771F0A95E2F7882777FDBF
S11305808095982F30D29B01AC01C701B601B7D238
S113059019D3FBD1862F972F35C023D22B013C01D1
S11305A0B7017727882777FD8095982F1CD26B0198
S11305B07C01C501B40115D29B01AC01C701B60190
S11305C09ED29B01AC01C301B20177D14B015C0106
S11305D061E070E002C0660F771F0A95E2F7882792
S11305E077FD8095982FFFD19B01AC01C501B40123
S11305F064D120E030E040E85FE3FAD0E3D2C5D133
S1130600862F972F1F910F91FF90EF90DF90CF903F
S1130610BF90AF909F908F907F906F905F904F901E
S113062008954F925F926F927F928F929F92AF92B2
S1130630BF92EF920F93CF93DF932B013C014901BB
S11306405A01D02FC9EFED2E0C2FA5019401C3013F
S1130650B2014CDF8115904118F0CF5FC83099F793
S11306608C2FDF91CF910F91EF90BF90AF909F901F
S11306708F907F906F905F904F9008952F923F924C
S11306804F925F926F927F928F929F92AF92BF929E
S1130690CF92EF92FF920F931F93CF93DF93EC01CE
S11306A03B0149015A0117012801EC2C0C2DA20130
S11306B09101C501B401B5DF182F082FA2019101E2
S11306C0C501B40113DFB82EE92E41E0B301CE0118
S11306D032D0E881F98183E08583E881F9818481DE
S11306E080618483E881F981848188608483E881DE
S11306F0F98183818F7C80618383E881F981B6826B
S1130700E881F9811295107FE12AE7828881998135
S1130710B7DEDF91CF911F910F91FF90EF90CF90B3
S1130720BF90AF909F908F907F906F905F904F900D
S11307303F902F900895FC01608371834283148657
S11307401386168615860895FC01258596852F5FE8
S1130750237081E0291301C080E008951F93CF9393
S1130760DF93EC01162FF0DF882379F09D85FE01DD
S1130770E90FF11D17839F5F93709D87E881F981CD
S113078093819C7F2A81922B9383DF91CF911F9138
S11307900895FC0183858F5F83709485A081B18166
S11307A02C91891749F09385DF01A90FB11D139688
S11307B02C93838781E0089580E00895FC01868569
S11307C09585981307C00190F081E02D83818C7F7B
S11307D0838308958685DF01A80FB11D17968C9138
S11307E0A081B1818C9386858F5F837086870895FD
S11307F05058BB27AA270ED048C139D130F03ED17A
S113080020F031F49F3F11F41EF42EC10EF4E09554
S1130810E7FB24C1E92F4AD180F3BA1762077307B3
S11308208407950718F071F49EF562C10EF4E09503
S11308300B2EBA2FA02D0B01B90190010C01CA0196
S1130840A0011124FF27591B99F0593F50F4503E41
S113085068F11A16F040A22F232F342F4427585F33
S1130860F3CF469537952795A795F0405395C9F74B
S11308707EF41F16BA0B620B730B840BBAF0915003
S1130880A1F0FF0FBB1F661F771F881FC2F70EC0A2
S1130890BA0F621F731F841F48F487957795679575
S11308A0B795F7959E3F08F0B3CF9395880F08F05E
S11308B09927EE0F9795879508950CD0E6C0DED062
S11308C040F0D5D030F021F45F3F19F0C7C051118A
S11308D010C1CAC0EBD098F39923C9F35523B1F3DF
S11308E0951B550BBB27AA2762177307840738F09B
S11308F09F5F5F4F220F331F441FAA1FA9F333D0FA
S11309000E2E3AF0E0E830D091505040E695001CAD
S1130910CAF729D0FE2F27D0660F771F881FBB1F69
S1130920261737074807AB07B0E809F0BB0B802D43
S1130930BF01FF2793585F4F2AF09E3F510568F08F
S11309408DC0D7C05F3FECF3983EDCF38695779576
S11309506795B795F7959F5FC9F7880F911D969591
S1130960879597F90895E1E0660F771F881FBB1FED
S1130970621773078407BA0720F0621B730B840B9A
S1130980BA0BEE1F88F7E095089598D088F09F572A
S113099090F0B92F9927B751A0F0D1F0660F771FC7
S11309A0881F991F1AF0BA95C9F712C0B13081F0A7
S11309B09FD0B1E008959CC0672F782F8827B85F37
S11309C039F0B93FCCF3869577956795B395D9F708
S11309D03EF490958095709561957F4F8F4F9F4F12
S11309E00895E89409C097FB3EF49095809570951E
S11309F061957F4F8F4F9F4F9923A9F0F92F96E967
S1130A00BB279395F695879577956795B795F111DB
S1130A10F8CFFAF4BB0F11F460FF1BC06F5F7F4F78
S1130A208F4F9F4F16C0882311F096E911C077238A
S1130A3021F09EE8872F762F05C0662371F096E893
S1130A40862F70E060E02AF09A95660F771F881F62
S1130A50DAF7880F9695879597F9089597F99F6720
S1130A6080E870E060E008959FEF80EC0895002432
S1130A700A941616170618060906089500240A94FF
S1130A8012161306140605060895092E0394000C85
S1130A9011F4882352F0BB0F40F4BF2B11F460FF14
S1130AA004C06F5F7F4F8F4F9F4F089557FD90583D
S1130AB0440F551F59F05F3F71F04795880F97FB1E
S1130AC0991F61F09F3F79F08795089512161306D8
S1130AD01406551FF2CF4695F1DF08C01616170607
S1130AE01806991FF1CF869571056105089408953C
S1130AF0E894BB2766277727CB0197F908950BD095
S1130B00C4CFB5DF28F0BADF18F0952309F0A6CFDB
S1130B10ABCF1124EECFCADFA0F3959FD1F3950F8D
S1130B2050E0551F629FF001729FBB27F00DB11D6D
S1130B30639FAA27F00DB11DAA1F649F6627B00DFD
S1130B40A11D661F829F2227B00DA11D621F739FE6
S1130B50B00DA11D621F839FA00D611D221F749FF4
S1130B603327A00D611D231F849F600D211D822F3B
S1130B70762F6A2F11249F5750408AF0E1F0882382
S1130B804AF0EE0FFF1FBB1F661F771F881F91508F
S1130B905040A9F79E3F510570F060CFAACF5F3F48
S1130BA0ECF3983EDCF3869577956795B795F795C2
S1130BB0E7959F5FC1F7FE2B880F911D969587954A
S1130BC097F908957BDFE0F09E37D8F09639B8F4B2
S1130BD09E3848F4672F782F8827985FF9CF869539
S1130BE07795679593959539D0F3B62FB1706B0FC0
S1130BF0711D811D20F4879577956795939502C0A3
S1130C001CC077CF882371F4772321F09850872B69
S1130C10762F07C0662311F499270DC09051862BB7
S1130C2070E060E02AF09A95660F771F881FDAF764
S1130C30880F9695879597F908959F3F31F09150C5
S1130C4020F4879577956795B795880F911D9695AC
S1130C50879597F908950F931F93CF93DF93CDB79B
S1130C60DEB72E97CDBFDEBF0E891F8986E08C8349
S1130C7009831A838FEF9FE78D839E83CE014A9663
S1130C80AC01688D798DCE0101960DD0EF81F88588
S1130C90E00FF11F10822E96CDBFDEBFDF91CF9102
S1130CA01F910F9108952F923F924F925F926F92EE
S1130CB07F928F929F92AF92BF92CF92DF92EF92E8
S1130CC0FF920F931F93CF93DF93CDB7DEB72C978B
S1130CD0CDBFDEBF7C016B018A01FC011682178245
S1130CE0838181FFB9C188248394912C8C0E9D1E2D
S1130CF0F7019381F60193FD859193FF81916F0133
S1130D00882309F4A5C1853239F493FD859193FFB5
S1130D1081916F01853221F4B70190E0CCD1E8CF05
S1130D20512C312C20E02032A8F48B3261F028F4CD
S1130D30803251F0833271F40BC08D3239F080333C
S1130D4049F4216028C02260246025C0286023C0A3
S1130D50206121C027FD27C0382F30533A3078F462
S1130D6026FF06C0FAE05F9E300D1124532E13C0F7
S1130D708AE0389E300D1124332E20620CC08E324E
S1130D8021F426FD65C1206406C08C3611F4206868
S1130D9002C0883641F4F60193FD859193FF819159
S1130DA06F018111C0CF982F9554933018F0905251
S1130DB0933028F40C5F1F4FFFE3F9830DC0833693
S1130DC031F0833771F0833509F05AC022C0F8013D
S1130DD0808189830E5F1F4F44244394512C540116
S1130DE014C03801F2E06F0E711CF801A080B180CC
S1130DF026FF03C0652D70E002C06FEF7FEFC501D1
S1130E002C874ED12C0183012C856FE7262E2222BC
S1130E1017C03801F2E06F0E711CF801A080B18098
S1130E2026FF03C0652D70E002C06FEF7FEFC501A0
S1130E302C872BD12C012C8550E8252E222A8301C6
S1130E4023FC1AC005C0B70180E290E034D13A9483
S1130E50832D90E048165906B0F30EC0F50127FC27
S1130E60859127FE81915F01B70190E024D1311073
S1130E703A94F1E04F1A51084114510479F7E5C04E
S1130E80843611F0893639F5F80127FF07C06081EF
S1130E907181828193810C5F1F4F08C060817181D1
S1130EA0882777FD8095982F0E5F1F4F4FE6B42E4D
S1130EB0B22297FF09C090958095709561957F4FF8
S1130EC08F4F9F4FF0E8BF2A2AE030E0A4011FD1E2
S1130ED0A82EA81842C0853731F43FEEB32EB222B3
S1130EE02AE030E024C099EFB92EB2228F36B9F04F
S1130EF020F4883509F0ACC00DC0803721F0883764
S1130F0009F0A6C002C020E1B22AB4FE0BC084E0FE
S1130F10B82A08C024FF09C0E6E0BE2A06C028E0BB
S1130F2030E005C020E130E002C020E132E0F80109
S1130F30B7FE07C060817181828193810C5F1F4F6E
S1130F4006C06081718180E090E00E5F1F4FA401B4
S1130F50DED0A82EA818FFE7BF22B6FE0BC02B2DAB
S1130F602E7FA51450F4B4FE0AC0B2FC08C02B2D89
S1130F702E7E05C07A2C2B2D03C07A2C01C0752C33
S1130F8024FF0DC0FE01EA0DF11D8081803311F4B0
S1130F90297E09C022FF06C07394739404C0822F73
S1130FA0867809F0739423FD13C020FF0EC05A2CD9
S1130FB0731458F4530C5718732C07C0B70180E20C
S1130FC090E02C8778D073942C857314B8F304C004
S1130FD0731410F4371801C0312C24FF11C0B70169
S1130FE080E390E02C8767D02C8522FF1CC021FF72
S1130FF003C088E590E002C088E790E0B7010CC028
S1131000822F867881F021FD02C080E201C08BE24C
S113101027FD8DE2B70190E04ED005C0B70180E313
S113102090E049D05A94A514C8F3AA94F401EA0DA7
S1131030F11DB701808190E03ED0A110F6CF05C02C
S1131040B70180E290E037D03A943110F9CF50CE16
S1131050F7012681378102C02FEF3FEFC9012C969B
S1131060CDBFDEBFDF91CF911F910F91FF90EF9025
S1131070DF90CF90BF90AF909F908F907F906F90B4
S11310805F904F903F902F900895FC010590615020
S113109070400110D8F7809590958E0F9F1F08958A
S11310A0FC016150704001900110D8F78095909533
S11310B08E0F9F1F08950F931F93CF93DF938C017F
S11310C0EB018B8181FD03C00FEF1FEF1AC082FF7C
S11310D00DC02E813F818C819D812817390764F4CE
S11310E0E881F9810193E883F98306C0E885F985ED
S11310F0802F1995892B41F78E819F8101968E83CC
S11311009F83C801DF91CF911F910F910895FA0138
S1131110AA27283051F1203181F1E8946F936E7F32
S11311206E5F7F4F8F4F9F4FAF4FB1E03ED0B4E023
S11311303CD0670F781F891F9A1FA11D680F791F64
S11311408A1F911DA11D6A0F711D811D911DA11D75
S113115020D009F468943F912AE0269F1124301985
S1131160305D3193DEF6CF010895462F4770405D20
S11311704193B3E00FD0C9F7F6CF462F4F70405DCF
S11311804A3318F0495D31FD4052419302D0A9F72A
S1131190EACFB4E0A6959795879577956795BA9524
S11311A0C9F700976105710508959B01AC010A2EEA
S11311B006945795479537952795BA95C9F7620FC1
S11111C0731F841F951FA01D0895F894FFCF80
S11311CE696E6974207375636365656465640A008A
S11111DE202564200A0068616C6C6F0A000012
S9030000FC
